S01100000000486578766965772056312E3108
S3250C0000000008001001020008B1020008B1020008B1020008B1020008B10200080000000004
S3250C000020000000000000000000000000B1020008B102000800000000B1020008CD16000892
S3250C000040B1020008B1020008B1020008B1020008B1020008B1020008B1020008B1020008B6
S3250C000060B1020008000000000000000000000000B102000800000000B1020008B102000882
S3250C000080B1020008B1020008B1020008B1020008B1020008B1020008B1020008B102000876
S3250C0000A0B1020008B1020008B1020008B1020008B1020008B1020008B1020008B102000856
S3250C0000C0B1020008B1020008B1020008B1020008B1020008B1020008B1020008B102000836
S3250C0000E0B1020008B1020008B1020008B1020008B1020008B1020008B1020008B102000816
S3250C000100B1020008B1020008B1020008B1020008B1020008B1020008B1020008B1020008F5
S3250C000120B1020008B1020008B1020008B1020008B1020008B1020008B1020008B1020008D5
S3250C000140B1020008B1020008B1020008B1020008B1020008B1020008B1020008B1020008B5
S3250C00016000000000000000000000000000000000B1020008B1020008B1020008B102000881
S3250C000180B1020008B1020008B1020008B1020008B1020008B1020008B1020008B102000875
S3250C0001A0B1020008B1020008B1020008B1020008B1020008B1020008B1020008B102000855
S3250C0001C0B1020008B1020008B1020008B1020008B1020008B1020008B102000800000000F0
S3250C0001E0B1020008B1020008B1020008B1020008B102000800000000B1020008000000008B
S3250C000200DFF88CD023488047234C244DAC4209DA21686268A368043BA2BFC858D050FAE797
S3250C0002200C34F3E71E4B1F4CA34208DA19685A680020043AA4BF8850FBE70833F4E71A48C1
S3250C00024080471A4880470000B01F000C00000020980000004820000C000000300000000065
S3250C000260B01F000C0008001000000000B01F000C0008001000000000980000203401000099
S3250C0002800000003000000000000800100000000000080010B5020008480200087802000859
S3250C0002A078020008900200084D1E0008CD1D0008FEE7000098B500AF054A4FF0005314468F
S3250C0002C00FCB84E80F0001F0C1FA01F029FB98BDC4FF002080B584B000AF2F4BDB6803F4F2
S3250C0002E08033002B3ED02D4BDB6803F00103002B02D02B4BFB6002E001F008FBF860274BE0
S3250C0003001B6803F00403002B20D0244B9B6803F070631B0E0133BB60204B9B6803F4FE43DD
S3250C0003201B0A01337B601D4B9B6803F4FE031B0C01333B60BB683A6802FB03F3FA68B2FB57
S3250C000340F3F37A6802FB03F3FB600DE0134B9B6803F07F0301333B60FA683B68B2FBF3F34B
S3250C000360FB6001E00E4BFB600B4BDB68DBB20133FA68B2FBF3F3FB60074B1B6903F0010304
S3250C0003800133FA68B2FBF3F3FB60064AFB6813601037BD4680BD00BF00460050104700501E
S3250C0003A000366E01C0FF002080B485B000AFF8600B467A60FB72FB7A9B08DBB21846FB7A27
S3250C0003C09B08DBB21A46FB68043253F82220FB7A03F00303DB001946F8238B40DB4302EABD
S3250C0003E00301FB68021D43F82210FB685A6FFB7A5B00194603238B40DB431A40FB685A6710
S3250C000400FB683A4A934203D0FB68394A93420AD1FB681A6EFB7A012101FA03F3DB431A40BA
S3250C000420FB681A6642E07B681B78DBB25BB2002B3CDA7B685A68FB7A9A40FB685A60FB7ACE
S3250C000440DB08DBB21846FB7ADB08DBB21A46FB68103253F82220FB7A03F007039B001946D9
S3250C00046007238B40DB4302EA0301FB6800F1100243F82210FB7ADB08DBB21846FB7ADB08F9
S3250C000480DBB21A46FB68103253F822207B681B7A1946FB7A03F007039B0001FA03F342EA2A
S3250C0004A00301FB6800F1100243F82210FB7A9B08DBB21846FB7A9B08DBB21A46FB680432B2
S3250C0004C053F822207B681B781946FB7A03F00303DB0001FA03F342EA0301FB68021D43F881
S3250C0004E022101437BD465DF8047B7047008E0248008F024880B400AF034B1B681846BD4619
S3250C0005005DF8047B704700BFC0FF002080B400AF034BD3F8C4301846BD465DF8047B7047C4
S3250C0005200040005080B584B000AF7860FFF7D2FE0B4B1B680B4AA2FB03239A0C7B6802FBEC
S3250C00054003F37B600023FB6003E000BFFB680133FB60FA687B689A42F7D31037BD4680BD34
S3250C000560C0FF002083DE1B4380B400AF034B5B681846BD465DF8047B704700BF7440005028
S3250C00058080B483B000AF7860034A7B68D3600C37BD465DF8047B704774400050B0B584B08A
S3250C0005A002AF7860002000F09BF800F01DFA7B68DB79002B0AD000F055FA00BF00F040FA92
S3250C0005C0034683F00103DBB2002BF7D17B685B7A184600F0FFF800BFFFF798FF0346002B0C
S3250C0005E0FAD17B681B7A184600F0D8F97B681B7C184600F00DF97B685B7C184600F030F988
S3250C0006007B689B7C184600F017F97B68DB7C184600F03AF97B689B79002B0AD000F05AFA75
S3250C00062000BF00F07FFA034683F00103DBB2002BF7D17B68DB78002B02D100F097FA14E097
S3250C00064000F084FA7B6899887B68DA787B685B781D467B681B781C467B689B780093084619
S3250C00066011462A46234600F091FA7B68DB68B3F5803F03D14FF4803000F032F8FFF72AFE31
S3250C0006800837BD46B0BD00BF80B485B000AF78607B681B0FFB607B6823F07043BB60FA685C
S3250C0006A013465B0013449B001A46044B1344BA681A601437BD465DF8047B7047144400505F
S3250C0006C080B500AFFFF716FF0246044B5B6903F0010322FA03F3184680BD00BF00460050C5
S3250C0006E080B483B000AF78600649064BDB6823F480327B681343CB600C37BD465DF8047BD0
S3250C000700704700BF0046005080B483B000AF78600649064B9B6923F480327B6813438B613B
S3250C0007200C37BD465DF8047B704700BF0046005080B483B000AF78600649064B5B6A23F417
S3250C00074040327B6813434B620C37BD465DF8047B704700BF0046005080B483B000AF0346AA
S3250C000760FB80FB88002B08D10A4A0A4BDB6823F4807323F00103D36007E0064A054BDB685B
S3250C00078043F4807343F00103D3600C37BD465DF8047B70471047005080B483B000AF0346DC
S3250C0007A0FB7100BF094BD3F8C43003F00803002BF8D10749064BDB6823F04002FB791343F4
S3250C0007C0CB600C37BD465DF8047B7047004000500043005080B483B000AF0346FB7100BF5E
S3250C0007E0094BD3F8C43003F00803002BF8D10749064BDB6823F08002FB791343CB600C3731
S3250C000800BD465DF8047B7047004000500043005080B483B000AF78600649064BDB6823F031
S3250C000820FF027B68013B1343CB600C37BD465DF8047B70470046005080B483B000AF7860B0
S3250C0008400649064B1B6A23F001027B68013B13430B620C37BD465DF8047B70470046005002
S3250C00086080B483B000AF78600649064B1B6923F001027B68013B13430B610C37BD465DF8C2
S3250C000880047B70470046005080B483B000AF78600649064B5B6923F001027B68013B13439D
S3250C0008A04B610C37BD465DF8047B70470046005080B483B000AF78600649064B9B6923F06E
S3250C0008C007027B68013B13438B610C37BD465DF8047B70470046005080B483B000AF786047
S3250C0008E00649064BDB6923F03F027B68013B1343CB610C37BD465DF8047B704700460050A6
S3250C00090080B483B000AF78600649064B5B6A23F0FF027B68013B13434B620C37BD465DF8A1
S3250C000920047B70470046005080B483B000AF78603960194A184B5B6943F001035361164A7D
S3250C000940154B5B6943F01003536113493B68013B1A027B68013B1B0613434B610E4A0E4B1D
S3250C0009605B6943F0400353610B4A0B4B5B6923F010035361084A084B5B6943F48023536137
S3250C00098000BF054B1B6903F00403002BF9D00C37BD465DF8047B70471047005080B582B0E5
S3250C0009A000AF0346FB710F4A0E4B5B6843F480135360FB79012B0ED10A4A0A4B5B6823F4CD
S3250C0009C0801353606420FFF7ADFD064A054B5B6843F4002353606420FFF7A4FD0837BD46CE
S3250C0009E080BD00BF1047005080B400AF124B1B6803F00103002B09D10F4B01225A6000BF8D
S3250C000A000D4B1B6803F00103002BF9D00B4B1B6803F40073002B0AD0084B4FF400729A60B4
S3250C000A2000BF064B1B6803F40073002BF9D1BD465DF8047B704700BF00420050004400503F
S3250C000A4080B400AF064B1B6803F00803002B0CBF01230023DBB21846BD465DF8047B704719
S3250C000A600043005080B500AF4FF40000FFF788FD174A174BDB6923F03003D36100BFFFF7F9
S3250C000A8073FD034603F40003002BF8D04FF40030FFF776FD0E4B08225A6000BFFFF764FD6F
S3250C000AA0034603F40033002BF8D04FF40020FFF767FD074A064BDB6843F00803D36000BFEC
S3250C000AC0FFF752FD034603F40023002BF8D080BD00430050B0B500AF0F4A0F4B5B6823F4F8
S3250C000AE0803353600D4D0D4B5B6823F4702424F0300400F00BFF0246094BA3FB02231B0D95
S3250C000B00013B1B0423436B60034A034B5B6823F400335360B0BD00BF104700500047005072
S3250C000B206BCA5F6B80B400AF074B1B6803F46073B3F5607F0CBF01230023DBB21846BD469B
S3250C000B405DF8047B704700BF1047005080B400AF054A054B5B6823F4803323F002035360B8
S3250C000B60BD465DF8047B70471047005080B400AF054A054B5B6843F4803343F00203536014
S3250C000B80BD465DF8047B70471047005080B586B000AFBA607B600346FB810B467B73FB8977
S3250C000BA01846FFF7D9FD7B7B012B40F08480FB89002B09D100F0AAFE02464B4BA3FB0223E1
S3250C000BC09B0C9B057B6102E04FF0C0637B617B697A6802FB03F2BB68B2FBF3F37B617B6992
S3250C000BE0424AA2FB03231B099B0D3B61404A404B5B6843F0010353603D4A3D4B5B6843F065
S3250C000C00100353603A493A4B9A683A4B13407A68013A12021A433B69013B1B041A43BB680D
S3250C000C20013B1B0613438B60314A314B5B6843F0400353602E4A2E4B5B6823F01003536094
S3250C000C402B4A2B4B5B6843F48023536000BF284B1B6803F00403002BF9D0254A244B5B6803
S3250C000C6023F00103536000BF214B1B6803F00103002BF9D17B69204AA2FB03235B099B0DE1
S3250C000C803B613A6A3B699A4202D2386900F038F87B695B08194AA2FB03235B099B0D3B61D8
S3250C000CA03A6A3B699A4202D2386900F029F8386A00F026F815E00E490D4B9B6823F07F028D
S3250C000CC03B6A013B13438B60094A094B5B6843F00103536000BF064B1B6803F00103002BD7
S3250C000CE0F9D01837BD4680BD83DE1B43ABAAAAAA10470050FF8080F089888888B7600BB693
S3250C000D0080B582B000AF78600749074B9B6823F4FE027B68013B1B0413438B603220FFF750
S3250C000D2001FC0837BD4680BD1047005080B483B000AF78607B68D3F8C43103F44073002B18
S3250C000D400CBF01230023DBB218460C37BD465DF8047B704780B483B000AF78600846114620
S3250C000D601A460346FB700B46BB7013467B70FA78BB781B0403F47F031A437B781B061A4382
S3250C000D807B68C3F8C4210C37BD465DF8047B704780B483B000AF78607B681B6843F0400224
S3250C000DA07B681A600C37BD465DF8047B704700BF80B483B000AF78607B681B6823F040028B
S3250C000DC07B681A600C37BD465DF8047B704700BF80B483B000AF786039603A687B68934233
S3250C000DE038BF134618460C37BD465DF8047B704780B483B000AF786039603A687B68934281
S3250C000E0028BF134618460C37BD465DF8047B704780B588B000AF786039603B681B683A68FC
S3250C000E205268B3FBF2F102FB01F29B1A002B40F08B800023BB613B681A683B685B68B2FBD3
S3250C000E40F3F3BB6019237B6100233B610023FB6048E0BB687A69B3FBF2F2796901FB02F298
S3250C000E609B1A002B3BD10023BB61BA687B69B2FBF3F3FB61FB69002B31D0FB69B3F5007F25
S3250C000E802DD8FB693F2B07D9FB6903F00703002B00D027E00123BB617B69013B3A6812898D
S3250C000EA002FB03F32B4AA2FB03235B0B3B617A693B69D31A013BFB603B69022B0FD93B698B
S3250C000EC00F2B0CD8FB68012B09D9FB68062B06D83B685B891A46FB689A4200D805E07B6938
S3250C000EE0013B7B617B69072BB3D87B69072B2BD97868FFF74DFFFB68013B1B0303F4E04215
S3250C000F003B685B89013B9B01DBB21A433B69013B1B0203F4706342EA0301BA6913465B00A8
S3250C000F2013441A46FB69D340013B03F03F0341EA0302BB69DB039BB21A437B681A617868E6
S3250C000F40FFF736FF002300E0012318462037BD4680BD00BF5917B7D180B582B000AF786093
S3250C000F600B46FB701346BB7000BF7868FFF7DEFE034683F00103DBB2002BF6D1FB780133C8
S3250C000F80DBB2BA7878680221FFF7E4FE0837BD4680BD00BF80B582B000AF78600948FFF732
S3250C000FA073FB7B681B6823F001027B681A6000BF7B681B6803F00203002BF9D10837BD4684
S3250C000FC080BD00BF1000001080B483B000AF78600B46FB700C37BD465DF8047B704700BFA9
S3250C000FE080B584B000AF7860FFF76AFBF860FB6818461037BD4680BD80B588B000AFF86080
S3250C0010000B467A60FB72F868FFF7EAFFF861F868FFF7C0FFFB7AF8681946FFF7D5FFFA6918
S3250C0010207B68B2FBF3F3C3F5806300201946FFF7CFFE0346184640F2FF31FFF7D9FEB8615C
S3250C001040BB69C3F58063FA69B2FBF3F37B61FB68DB6823F4434323F0FF03FA68D360FB689D
S3250C001060DA68BB69134343F48042FB68DA607B6918462037BD4680BD80B586B000AF786041
S3250C0010807B681B6803F13843A3F5A8335B097B617B695B095A037B6903F01F031B021343A5
S3250C0010A03B617B681B687A681268926822F47F429A607B681B687A68126891683A690A434A
S3250C0010C09A607B68DB7903F02003DBB2002B07D07B68DB7903F02003DBB2002B00D160E012
S3250C0010E07B681B7E002B04D07B681B7E012B00D057E07B681B682022DA617B68DB7903F0A7
S3250C0011002003DBB2002B28D17B685B68FB60FB6803F06043FB607B685B68C3F31C039B047A
S3250C0011201A46FB681343FB607B681B68FA689A617B689B68FB60FB6803F06043FB607B68EE
S3250C0011409B68C3F31C039B041A46FB681343FB607B681B68FA68DA6009E07B681B687A685F
S3250C00116052689A617B681B687A689268DA607B681B7E012B0CD1786800F01AF87B681B685F
S3250C0011804FF00062DA617B681B68074ADA6108E07B681B684FF40062DA617B681B68034A8E
S3250C0011A0DA611837BD4680BDC00020064006A00080B485B000AF78600323FB737B681B7E87
S3250C0011C0012B22D17B681B682022DA617B681B687A681268126822F070617A68127B120655
S3250C0011E002F070620A431A607B681B687A6812691A617B681B687A6852695A617B681B68F0
S3250C001200064ADA610023FB7301E00323FB73FB7B18461437BD465DF8047B70474000280016
S3250C00122080B483B000AF786039603B68B3F5800F06D07B681A683B681A437B681A6005E0BE
S3250C0012407B689A693B681A437B689A610C37BD465DF8047B704700BF80B400AFBD465DF8ED
S3250C001260047B704780B400AF044BDB6803F4E0631B0A1846BD465DF8047B704700ED00E099
S3250C00128080B483B000AF03463960FB7197F90730002B0ADB0D4997F907303A68D2B292002C
S3250C0012A0D2B20B4483F800230AE00949FB7903F00F03043B3A68D2B29200D2B20B441A769C
S3250C0012C00C37BD465DF8047B704700BF00E100E000ED00E080B489B000AFF860B9607A6077
S3250C0012E0FB6803F00703FB61FB69C3F10703062B28BF0623BB61FB690633062B02D9FB6994
S3250C001300013B00E000237B61BB69012202FA03F35A1EBB681A407B699A407B69012101FAB3
S3250C00132003F3591E7B680B40134318462437BD465DF8047B704700BF80B582B000AF7860B6
S3250C0013407B68013BB3F1807F01D301230FE00A4A7B68013B53604FF0FF303F21FFF790FF59
S3250C001360054B00229A60044B07221A60002318460837BD4680BD00BF10E000E090B486B0F4
S3250C00138000AF78600023FB736B497A681346DB0013449B000B4418331B68BB60674B1B68FA
S3250C0013A0002B09D17A681346DB0013449B00624A1344624A1360BBE0604B1B687B61BB6824
S3250C0013C03B61ABE07B699B691A463B699B1A3B613B69002B7ADC7B695B68002B26D07B69C6
S3250C0013E059687A681346DB0013449B00524A13440B607B69596850487A681346DB0013440A
S3250C0014009B00034459604C497A681346DB0013449B000B447A691A607A681346DB00134469
S3250C0014209B00454A1A447B695A601CE0434B196841487A681346DB0013449B000344196018
S3250C0014403E4B19687A681346DB0013449B003A4A13444B607A681346DB0013449B00364A5A
S3250C0014601344364A136034497A681346DB0013449B000B441B689A693B69D1182E487A68D1
S3250C0014801346DB0013449B000344183319602A497A681346DB0013449B000B441968264850
S3250C0014A07A681346DB0013449B0003441B689869214C7A681346DB0013449B002344183320
S3250C0014C01B68C31A8B610123FB7324E03B69002B21DD7B691B68002B1DD117497A68134630
S3250C0014E0DB0013449B000B447A695A607A681346DB0013449B00104A1A447B691A60396961
S3250C0015000D487A681346DB0013449B000344183319600123FB737B691B687B617B69002B6D
S3250C00152006D0FB7B83F00103DBB2002B7FF44AAF1837BD4690BC7047AC00002098000020D9
S3250C00154080B485B000AF78607A681346DB0013449B00294A1344FB60FB685B68002B07D133
S3250C001560FB681B68002B03D1244B00221A603DE0FB685B68002B14D1FB681B681F4A136054
S3250C0015801E4B1B6800225A601C4B1B681B4A12689169FA6892690A449A61FB6800221A6009
S3250C0015A024E0FB681B68002B07D1FB685B6800221A60FB6800225A6018E0FB685B68FA68AB
S3250C0015C012681A60FB681B68FA6852685A60FB681B68FA6812689169FA6892690A449A61E7
S3250C0015E0FB6800221A60FB6800225A601437BD465DF8047B704700BFAC000020980000207F
S3250C00160080B582B000AF2F4B1B687B6050E07B6893F82030002B13D07B685B691846FFF7D3
S3250C0016208FFF7B6800225A737B685B691A4601239340DA43244B1B681340234A136034E0E4
S3250C0016407B681B7B002B12D17B685B7B012B2CD17B685B691846FFF773FF7B6802225A73CE
S3250C0016607B689B687A681269104698471DE07B681B7B012B18D17B685B7B012B15D17B68A7
S3250C0016805B691846FFF75CFF7B68DA697B689A617B685B691846FFF771FE7B689B687A688F
S3250C0016A012691046984700E009E0064B1B687B607B68002B03D07B689B69002BA7D0083747
S3250C0016C0BD4680BD980000209C00002080B582B000AF0E4B1B687B600D4B1B6801330C4A12
S3250C0016E013607B68002B0ED07B689B69012B05D97B689B695A1E7B689A6104E07B68002262
S3250C0017009A61FFF77DFF0837BD4680BD98000020A000002080B584B000AF78600023FB73D2
S3250C0017207B681B7883F00103DBB2002B20D0134B00221A601248FFF7FFFD0346FB73FB7B8F
S3250C001740012B15D0FFF78EFD034618463F210022FFF7C0FD03464FF0FF301946FFF790FD70
S3250C001760084B00221A607B6801221A700023FB73FB7B18461037BD4680BD00BF9800002075
S3250C001780C0D401009C00002080B400AF054B1B684FF47A7202FB03F31846BD465DF8047BD9
S3250C0017A0704700BFA000002080B400AF044A044B1B6843F001031360BD465DF8047B7047A6
S3250C0017C010E000E080B584B000AF78600023FB737B685B7A83F00103DBB2002B0DD07B68FF
S3250C0017E05A687B681B68104601211A46FFF704FC7B6801225A720023FB73FB7B1846103763
S3250C001800BD4680BD80B485B000AF78607B6803F00703FB600C4BDB68BB60BA684FF6FF032D
S3250C0018201340BB60FB681A02BB68134343F0BF6343F40033BB60044ABB68D3601437BD4664
S3250C0018405DF8047B704700BF00ED00E080B582B000AF0120FFF7D6FF72B6214B214A9A6064
S3250C001860BFF34F8F62B61E4A1D4BD3F8883043F47003C2F888301C4B03F5805314331B6843
S3250C0018807B607B6823F00F037B607B6843F003037B60154B03F5805314337A681A60104A59
S3250C0018A00F4B5B6923F0100353610D4A0C4B5B6923F0080353610A4A094B5B6A23F48033A3
S3250C0018C05362074A064B5B6A23F400335362044A034B5B6A23F4802353620837BD4680BD8C
S3250C0018E000ED00E0000000080010005880B485B000AF78600023FB737B6801221A70FB7B12
S3250C00190018461437BD465DF8047B704780B400AF024B1846BD465DF8047B7047001BB70090
S3250C001920B0B586B000AF124B3C1D1D460FCD0FC42B6823603B1D1846FEF730FE0020FEF77F
S3250C0019402BFF0020FEF7E0FE0420FEF7B1FF01202021FEF7E9FF0020FEF7EAFE0120FEF73D
S3250C001960CFFF0120FEF7B8FF1837BD46B0BD00BF981E000880B485B000AFF8600B467A60E3
S3250C001980FB72FB689A68FB7A072101FA03F3DB431A40FB7A796801FA03F31A43FB689A605C
S3250C0019A01437BD465DF8047B704700BF80B483B000AF78600B46FB707B68DB6823F0070291
S3250C0019C0FB7803F007031A437B68DA600C37BD465DF8047B704700BF80B483B000AF78608D
S3250C0019E07B68DB6843F480727B68DA600C37BD465DF8047B704700BF80B483B000AF7860EB
S3250C001A007B681B6843F040027B681A600C37BD465DF8047B704700BF80B483B000AF7860FE
S3250C001A207B681B6823F040027B681A600C37BD465DF8047B704700BF80B483B000AF7860FE
S3250C001A407B681B6843F001027B681A600C37BD465DF8047B704700BF80B483B000AF7860FD
S3250C001A607B681B6823F001027B681A600C37BD465DF8047B704700BF80B485B000AFF8607B
S3250C001A800B467A60FB72FB681B68FA6812689168FA7A072000FA02F2D2431140FA7A78689E
S3250C001AA000FA02F20A439A601437BD465DF8047B704700BF80B483B000AF786039607B68DD
S3250C001AC01B687A68126811683A680A431A600C37BD465DF8047B704780B582B000AF786074
S3250C001AE07B681B6818464FF40031FFF7E3FF0837BD4680BD80B582B000AF78607B681B68F1
S3250C001B0018464FF48031FFF7D5FF0837BD4680BD80B584B000AF78600023FB60786800F0DA
S3250C001B2031F87B6893F8A430002B03D0FB6843F00203FB607B6893F8A330002B03D0FB6892
S3250C001B4043F00403FB607B6893F8A530002B03D0FB6843F00803FB607B685B681846F9683C
S3250C001B60FFF75EFB7B6893F8A630002B06D07B685B6818464FF48001FFF752FB1037BD466A
S3250C001B8080BD00BF80B582B000AF78607B685A687B68D3F88C301B78104600211A46FFF7DA
S3250C001BA0E9FE7B685A687B68D3F88C305B78104604211A46FFF7DEFE7B685A687B68D3F84A
S3250C001BC08C309B78104608211A46FFF7D3FE7B685A687B68D3F88C30DB7810460C211A4639
S3250C001BE0FFF7C8FE0837BD4680BD00BF80B582B000AF78607B681B681846FFF73DFA7B6817
S3250C001C00DB79002B0BD07B681A687B685B79104604211A46FFF730FF7868FFF75DFF7B6827
S3250C001C201B7A002B0BD07B681A687B689B79104600211A46FFF720FF7868FFF75BFF083740
S3250C001C40BD4680BD80B586B000AF78600023FB757B68D3F89030FB607B681B681846FFF72A
S3250C001C60B1FD0346FB75FB7D002B40F082807B685A687B689B6810461946FFF7C9F80346D6
S3250C001C80002B73D17B685B681846FFF7B5FE7B685B681846FFF7D0FE7B6893F8A730002BDE
S3250C001CA005D07B685B681846FFF796FE18E07B68D3F8983019687B68D3F898301A797B68D4
S3250C001CC0D3F89C30084611461A46FEF76DFB7B685A687B6893F8A03010461946FFF766FE07
S3250C001CE07868FFF715FF00233B6119E07A683B6902339B0013445B68BB607B681B6859687E
S3250C001D007B6893F8A120BB681B79084611461A46FFF722F9B868FFF769FF3B6901333B61C3
S3250C001D207B6893F8A2301A463B699A42DED87B685B681846FFF770FE7B685B681846FFF759
S3250C001D408BFE7B6893F8A73083F00103DBB2002B11D0FB681968FB681A797B68D3F8943047
S3250C001D60084611461A46FEF71FFB04E00123FB7501E00123FB75FB7D18461837BD4680BDEB
S3250C001D8080B582B000AF0023FB710D48FFF7AEFD0346FB71FB79002B04D10A48FFF7BAFC6F
S3250C001DA00346FB71FB79002B04D10748FFF74AFF0346FB71FB7918460837BD4680BD00BF95
S3250C001DC0A8000020A4000020081F000880B584B000AF0023BB60FFF7D3FF0346FB71154B03
S3250C001DE03B60FB79002B00D0FEE7FFF7DDFCFFF7CBFCF860FFF7C8FC0246FB68D31A41F279
S3250C001E008832934215D9FFF7BFFCF8600A4B1B68BB60BB68094A93420BD14FF0E023084A7C
S3250C001E20C3F8082D07480849086050F804DBD0F800F0DFE7000201080000040CAABBCCDDCA
S3250C001E400000010C0000010C08ED00E070B50E4B0E4CE41AA41000251E46A54204D056F865
S3250C001E60253098470135F8E7FFF7F6F9084C094BE41AA41000251E46A54204D056F82530E1
S3250C001E8098470135F8E770BD980000209800002098000020980000205002040100000100D7
S3250C001EA0000000000000010001010101008102480C000000900000000100000002000000A1
S3250C001EC0008102480D000000000000000000000000000000000000001800002020000000C0
S3250C001EE0000000003800002021000000000000005800002022000000000000007800002025
S3250C001F00230000000000000000000020004301480C000020D81E0008E41E0008F01E000896
S3250C001F20FC1E0008000000000000000000000000000000000000000000000000000000006D
S3250C001F4000000000000000000000000000000000000000000000000000000000000000006F
S3250C001F6000000000000000000000000000000000000000000000000000000000000000004F
S3250C001F800000000000000000000000000000000000000000D41E0008AC1E0008B41E000889
S3250C001FA0C01E0008C81E00080201040000000000000E27070040014800000000000E270733
S3250C001FC020A10700401F01000054014800070080FF07002008000000000000000000000075
S3250C001FE001000000000000002054014810070080FF0700200800000000000000000000004C
S3250C002000000000000000000040540148FF040080FF07002008000000000000000000000020
S3250C00202000000000000000006054014800060080FF070020080000000000000000000000DD
S30D0C002040010000000000000085
S3250C0100000008001001020108B1020108B1020108B1020108B1020108B102010800000000FD
S3250C010020000000000000000000000000B1020108B102010800000000B10201082917010830
S3250C010040B1020108B1020108B1020108B1020108B1020108B1020108B1020108B1020108AD
S3250C010060B1020108000000000000000000000000B102010800000000B1020108B10201087D
S3250C010080B1020108B1020108B1020108B1020108B1020108B1020108B1020108B10201086D
S3250C0100A0B1020108B1020108B1020108B1020108B1020108B1020108B1020108B10201084D
S3250C0100C0B1020108B1020108B1020108B1020108B1020108B1020108B1020108B10201082D
S3250C0100E0B1020108B1020108B1020108B1020108B1020108B1020108B1020108B10201080D
S3250C010100B1020108B1020108B1020108B1020108B1020108B1020108B1020108B1020108EC
S3250C010120B1020108B1020108B1020108B1020108B1020108B1020108B1020108B1020108CC
S3250C010140B1020108B1020108B1020108B1020108B1020108B1020108B1020108B1020108AC
S3250C01016000000000000000000000000000000000B1020108B1020108B1020108B10201087C
S3250C010180B1020108B1020108B1020108B1020108B1020108B1020108B1020108B10201086C
S3250C0101A0B1020108B1020108B1020108B1020108B1020108B1020108B1020108B10201084C
S3250C0101C0B1020108B1020108B1020108B1020108B1020108B1020108B102010800000000E8
S3250C0101E0B1020108B1020108B1020108B1020108B102010800000000B10201080000000084
S3250C010200DFF88CD023488047234C244DAC4209DA21686268A368043BA2BFC858D050FAE796
S3250C0102200C34F3E71E4B1F4CA34208DA19685A680020043AA4BF8850FBE70833F4E71A48C0
S3250C01024080471A48804700006021010C000000209C000000FC21010C0000003000000000F7
S3250C0102606021010C00080010000000006021010C00080010000000009C000020340100002E
S3250C0102800000003000000000000800100000000000080010B5020108480201087802010855
S3250C0102A07802010890020108FD1F0108091F0108FEE7000098B500AF054A4FF0005314469B
S3250C0102C00FCB84E80F0001F0EFFA01F057FB98BDC4FF002080B584B000AF2F4BDB6803F495
S3250C0102E08033002B3ED02D4BDB6803F00103002B02D02B4BFB6002E001F036FBF860274BB1
S3250C0103001B6803F00403002B20D0244B9B6803F070631B0E0133BB60204B9B6803F4FE43DC
S3250C0103201B0A01337B601D4B9B6803F4FE031B0C01333B60BB683A6802FB03F3FA68B2FB56
S3250C010340F3F37A6802FB03F3FB600DE0134B9B6803F07F0301333B60FA683B68B2FBF3F34A
S3250C010360FB6001E00E4BFB600B4BDB68DBB20133FA68B2FBF3F3FB60074B1B6903F0010303
S3250C0103800133FA68B2FBF3F3FB60064AFB6813601037BD4680BD00BF00460050104700501D
S3250C0103A000366E01C0FF002080B485B000AFF8600B467A60FB72FB7A9B08DBB21846FB7A26
S3250C0103C09B08DBB21A46FB68043253F82220FB7A03F00303DB001946F8238B40DB4302EABC
S3250C0103E00301FB68021D43F82210FB685A6FFB7A5B00194603238B40DB431A40FB685A670F
S3250C010400FB683A4A934203D0FB68394A93420AD1FB681A6EFB7A012101FA03F3DB431A40B9
S3250C010420FB681A6642E07B681B78DBB25BB2002B3CDA7B685A68FB7A9A40FB685A60FB7ACD
S3250C010440DB08DBB21846FB7ADB08DBB21A46FB68103253F82220FB7A03F007039B001946D8
S3250C01046007238B40DB4302EA0301FB6800F1100243F82210FB7ADB08DBB21846FB7ADB08F8
S3250C010480DBB21A46FB68103253F822207B681B7A1946FB7A03F007039B0001FA03F342EA29
S3250C0104A00301FB6800F1100243F82210FB7A9B08DBB21846FB7A9B08DBB21A46FB680432B1
S3250C0104C053F822207B681B781946FB7A03F00303DB0001FA03F342EA0301FB68021D43F880
S3250C0104E022101437BD465DF8047B7047008E0248008F024880B400AF034B1B681846BD4618
S3250C0105005DF8047B704700BFC0FF002080B400AF034BD3F8C4301846BD465DF8047B7047C3
S3250C0105200040005080B584B000AF7860FFF7D2FE0B4B1B680B4AA2FB03239A0C7B6802FBEB
S3250C01054003F37B600023FB6003E000BFFB680133FB60FA687B689A42F7D31037BD4680BD33
S3250C010560C0FF002083DE1B4380B400AF034B5B681846BD465DF8047B704700BF7440005027
S3250C01058080B483B000AF7860034A7B68D3600C37BD465DF8047B704774400050B0B584B089
S3250C0105A002AF7860002000F09BF800F01DFA7B68DB79002B0AD000F055FA00BF00F040FA91
S3250C0105C0034683F00103DBB2002BF7D17B685B7A184600F0FFF800BFFFF798FF0346002B0B
S3250C0105E0FAD17B681B7A184600F0D8F97B681B7C184600F00DF97B685B7C184600F030F987
S3250C0106007B689B7C184600F017F97B68DB7C184600F03AF97B689B79002B0AD000F05AFA74
S3250C01062000BF00F07FFA034683F00103DBB2002BF7D17B68DB78002B02D100F097FA14E096
S3250C01064000F084FA7B6899887B68DA787B685B781D467B681B781C467B689B780093084618
S3250C01066011462A46234600F091FA7B68DB68B3F5803F03D14FF4803000F032F8FFF72AFE30
S3250C0106800837BD46B0BD00BF80B485B000AF78607B681B0FFB607B6823F07043BB60FA685B
S3250C0106A013465B0013449B001A46044B1344BA681A601437BD465DF8047B7047144400505E
S3250C0106C080B500AFFFF716FF0246044B5B6903F0010322FA03F3184680BD00BF00460050C4
S3250C0106E080B483B000AF78600649064BDB6823F480327B681343CB600C37BD465DF8047BCF
S3250C010700704700BF0046005080B483B000AF78600649064B9B6923F480327B6813438B613A
S3250C0107200C37BD465DF8047B704700BF0046005080B483B000AF78600649064B5B6A23F416
S3250C01074040327B6813434B620C37BD465DF8047B704700BF0046005080B483B000AF0346A9
S3250C010760FB80FB88002B08D10A4A0A4BDB6823F4807323F00103D36007E0064A054BDB685A
S3250C01078043F4807343F00103D3600C37BD465DF8047B70471047005080B483B000AF0346DB
S3250C0107A0FB7100BF094BD3F8C43003F00803002BF8D10749064BDB6823F04002FB791343F3
S3250C0107C0CB600C37BD465DF8047B7047004000500043005080B483B000AF0346FB7100BF5D
S3250C0107E0094BD3F8C43003F00803002BF8D10749064BDB6823F08002FB791343CB600C3730
S3250C010800BD465DF8047B7047004000500043005080B483B000AF78600649064BDB6823F030
S3250C010820FF027B68013B1343CB600C37BD465DF8047B70470046005080B483B000AF7860AF
S3250C0108400649064B1B6A23F001027B68013B13430B620C37BD465DF8047B70470046005001
S3250C01086080B483B000AF78600649064B1B6923F001027B68013B13430B610C37BD465DF8C1
S3250C010880047B70470046005080B483B000AF78600649064B5B6923F001027B68013B13439C
S3250C0108A04B610C37BD465DF8047B70470046005080B483B000AF78600649064B9B6923F06D
S3250C0108C007027B68013B13438B610C37BD465DF8047B70470046005080B483B000AF786046
S3250C0108E00649064BDB6923F03F027B68013B1343CB610C37BD465DF8047B704700460050A5
S3250C01090080B483B000AF78600649064B5B6A23F0FF027B68013B13434B620C37BD465DF8A0
S3250C010920047B70470046005080B483B000AF78603960194A184B5B6943F001035361164A7C
S3250C010940154B5B6943F01003536113493B68013B1A027B68013B1B0613434B610E4A0E4B1C
S3250C0109605B6943F0400353610B4A0B4B5B6923F010035361084A084B5B6943F48023536136
S3250C01098000BF054B1B6903F00403002BF9D00C37BD465DF8047B70471047005080B582B0E4
S3250C0109A000AF0346FB710F4A0E4B5B6843F480135360FB79012B0ED10A4A0A4B5B6823F4CC
S3250C0109C0801353606420FFF7ADFD064A054B5B6843F4002353606420FFF7A4FD0837BD46CD
S3250C0109E080BD00BF1047005080B400AF124B1B6803F00103002B09D10F4B01225A6000BF8C
S3250C010A000D4B1B6803F00103002BF9D00B4B1B6803F40073002B0AD0084B4FF400729A60B3
S3250C010A2000BF064B1B6803F40073002BF9D1BD465DF8047B704700BF00420050004400503E
S3250C010A4080B400AF064B1B6803F00803002B0CBF01230023DBB21846BD465DF8047B704718
S3250C010A600043005080B500AF4FF40000FFF788FD174A174BDB6923F03003D36100BFFFF7F8
S3250C010A8073FD034603F40003002BF8D04FF40030FFF776FD0E4B08225A6000BFFFF764FD6E
S3250C010AA0034603F40033002BF8D04FF40020FFF767FD074A064BDB6843F00803D36000BFEB
S3250C010AC0FFF752FD034603F40023002BF8D080BD00430050B0B500AF0F4A0F4B5B6823F4F7
S3250C010AE0803353600D4D0D4B5B6823F4702424F0300400F039FF0246094BA3FB02231B0D66
S3250C010B00013B1B0423436B60034A034B5B6823F400335360B0BD00BF104700500047005071
S3250C010B206BCA5F6B80B400AF074B1B6803F46073B3F5607F0CBF01230023DBB21846BD469A
S3250C010B405DF8047B704700BF1047005080B400AF054A054B5B6823F4803323F002035360B7
S3250C010B60BD465DF8047B70471047005080B400AF054A054B5B6843F4803343F00203536013
S3250C010B80BD465DF8047B70471047005080B586B000AFBA607B600346FB810B467B73FB8976
S3250C010BA01846FFF7D9FD7B7B012B40F08480FB89002B09D100F0D8FE02464B4BA3FB0223B2
S3250C010BC09B0C9B057B6102E04FF0C0637B617B697A6802FB03F2BB68B2FBF3F37B617B6991
S3250C010BE0424AA2FB03231B099B0D3B61404A404B5B6843F0010353603D4A3D4B5B6843F064
S3250C010C00100353603A493A4B9A683A4B13407A68013A12021A433B69013B1B041A43BB680C
S3250C010C20013B1B0613438B60314A314B5B6843F0400353602E4A2E4B5B6823F01003536093
S3250C010C402B4A2B4B5B6843F48023536000BF284B1B6803F00403002BF9D0254A244B5B6802
S3250C010C6023F00103536000BF214B1B6803F00103002BF9D17B69204AA2FB03235B099B0DE0
S3250C010C803B613A6A3B699A4202D2386900F038F87B695B08194AA2FB03235B099B0D3B61D7
S3250C010CA03A6A3B699A4202D2386900F029F8386A00F026F815E00E490D4B9B6823F07F028C
S3250C010CC03B6A013B13438B60094A094B5B6843F00103536000BF064B1B6803F00103002BD6
S3250C010CE0F9D01837BD4680BD83DE1B43ABAAAAAA10470050FF8080F089888888B7600BB692
S3250C010D0080B582B000AF78600749074B9B6823F4FE027B68013B1B0413438B603220FFF74F
S3250C010D2001FC0837BD4680BD1047005080B483B000AF78607B68D3F8C43103F44073002B17
S3250C010D400CBF01230023DBB218460C37BD465DF8047B704780B483B000AF7860084611461F
S3250C010D601A460346FB700B46BB7013467B70FA78BB781B0403F47F031A437B781B061A4381
S3250C010D807B68C3F8C4210C37BD465DF8047B704780B483B000AF78607B681B6843F0400223
S3250C010DA07B681A600C37BD465DF8047B704700BF80B483B000AF78607B681B6823F040028A
S3250C010DC07B681A600C37BD465DF8047B704700BF80B483B000AF786039603A687B68934232
S3250C010DE038BF134618460C37BD465DF8047B704780B483B000AF786039603A687B68934280
S3250C010E0028BF134618460C37BD465DF8047B704780B588B000AF786039603B681B683A68FB
S3250C010E205268B3FBF2F102FB01F29B1A002B40F08B800023BB613B681A683B685B68B2FBD2
S3250C010E40F3F3BB6019237B6100233B610023FB6048E0BB687A69B3FBF2F2796901FB02F297
S3250C010E609B1A002B3BD10023BB61BA687B69B2FBF3F3FB61FB69002B31D0FB69B3F5007F24
S3250C010E802DD8FB693F2B07D9FB6903F00703002B00D027E00123BB617B69013B3A6812898C
S3250C010EA002FB03F32B4AA2FB03235B0B3B617A693B69D31A013BFB603B69022B0FD93B698A
S3250C010EC00F2B0CD8FB68012B09D9FB68062B06D83B685B891A46FB689A4200D805E07B6937
S3250C010EE0013B7B617B69072BB3D87B69072B2BD97868FFF74DFFFB68013B1B0303F4E04214
S3250C010F003B685B89013B9B01DBB21A433B69013B1B0203F4706342EA0301BA6913465B00A7
S3250C010F2013441A46FB69D340013B03F03F0341EA0302BB69DB039BB21A437B681A617868E5
S3250C010F40FFF736FF002300E0012318462037BD4680BD00BF5917B7D180B582B000AF786092
S3250C010F600B46FB701346BB7000BF7868FFF7DEFE034683F00103DBB2002BF6D1FB780133C7
S3250C010F80DBB2BA7878680221FFF7E4FE0837BD4680BD00BF80B582B000AF78600948FFF731
S3250C010FA073FB7B681B6823F001027B681A6000BF7B681B6803F00203002BF9D10837BD4683
S3250C010FC080BD00BF1000001080B483B000AF78600B46FB700C37BD465DF8047B704700BFA8
S3250C010FE080B584B000AF7860FFF76AFBF860FB6818461037BD4680BD80B588B000AFF8607F
S3250C0110000B467A60FB72F868FFF7EAFFF861F868FFF7C0FFFB7AF8681946FFF7D5FFFA6917
S3250C0110207B68B2FBF3F3C3F5806300201946FFF7CFFE0346184640F2FF31FFF7D9FEB8615B
S3250C011040BB69C3F58063FA69B2FBF3F37B61FB68DB6823F4434323F0FF03FA68D360FB689C
S3250C011060DA68BB69134343F48042FB68DA607B6918462037BD4680BD80B586B000AF786040
S3250C0110807B681B6803F13843A3F5A8335B097B617B695B095A037B6903F01F031B021343A4
S3250C0110A03B617B681B687A681268926822F47F429A607B681B687A68126891683A690A4349
S3250C0110C09A607B68DB7903F02003DBB2002B07D07B68DB7903F02003DBB2002B00D160E011
S3250C0110E07B681B7E002B04D07B681B7E012B00D057E07B681B682022DA617B68DB7903F0A6
S3250C0111002003DBB2002B28D17B685B68FB60FB6803F06043FB607B685B68C3F31C039B0479
S3250C0111201A46FB681343FB607B681B68FA689A617B689B68FB60FB6803F06043FB607B68ED
S3250C0111409B68C3F31C039B041A46FB681343FB607B681B68FA68DA6009E07B681B687A685E
S3250C01116052689A617B681B687A689268DA607B681B7E012B0CD1786800F01AF87B681B685E
S3250C0111804FF00062DA617B681B68074ADA6108E07B681B684FF40062DA617B681B68034A8D
S3250C0111A0DA611837BD4680BDC00020064006A00080B485B000AF78600323FB737B681B7E86
S3250C0111C0012B22D17B681B682022DA617B681B687A681268126822F070617A68127B120654
S3250C0111E002F070620A431A607B681B687A6812691A617B681B687A6852695A617B681B68EF
S3250C011200064ADA610023FB7301E00323FB73FB7B18461437BD465DF8047B70474000280015
S3250C01122080B487B000AF78600123FB757B681B68DB6903F020035B093B617B681B68DB69AB
S3250C01124003F480731B0AFB603B69002B02D10423FB750CE0FB68012B02D10223FB7506E00F
S3250C0112607B681B684FF0E062DA610023FB75FB7D18461C37BD465DF8047B704780B483B088
S3250C01128000AF786039603B68B3F5800F06D07B681A683B681A437B681A6005E07B689A69DE
S3250C0112A03B681A437B689A610C37BD465DF8047B704700BF80B400AFBD465DF8047B70473C
S3250C0112C080B400AF044BDB6803F4E0631B0A1846BD465DF8047B704700ED00E080B483B007
S3250C0112E000AF03463960FB7197F90730002B0ADB0D4997F907303A68D2B29200D2B20B445F
S3250C01130083F800230AE00949FB7903F00F03043B3A68D2B29200D2B20B441A760C37BD46C7
S3250C0113205DF8047B704700BF00E100E000ED00E080B489B000AFF860B9607A60FB6803F005
S3250C0113400703FB61FB69C3F10703062B28BF0623BB61FB690633062B02D9FB69013B00E06C
S3250C01136000237B61BB69012202FA03F35A1EBB681A407B699A407B69012101FA03F3591E01
S3250C0113807B680B40134318462437BD465DF8047B704700BF80B582B000AF78607B68013BA3
S3250C0113A0B3F1807F01D301230FE00A4A7B68013B53604FF0FF303F21FFF790FF054B0022A5
S3250C0113C09A60044B07221A60002318460837BD4680BD00BF10E000E090B486B000AF78607E
S3250C0113E00023FB736B497A681346DB0013449B000B4418331B68BB60674B1B68002B09D11B
S3250C0114007A681346DB0013449B00624A1344624A1360BBE0604B1B687B61BB683B61ABE0A0
S3250C0114207B699B691A463B699B1A3B613B69002B7ADC7B695B68002B26D07B6959687A68E8
S3250C0114401346DB0013449B00524A13440B607B69596850487A681346DB0013449B00034469
S3250C01146059604C497A681346DB0013449B000B447A691A607A681346DB0013449B00454AC0
S3250C0114801A447B695A601CE0434B196841487A681346DB0013449B00034419603E4B1968D7
S3250C0114A07A681346DB0013449B003A4A13444B607A681346DB0013449B00364A1344364A2C
S3250C0114C0136034497A681346DB0013449B000B441B689A693B69D1182E487A681346DB0013
S3250C0114E013449B000344183319602A497A681346DB0013449B000B44196826487A681346E8
S3250C011500DB0013449B0003441B689869214C7A681346DB0013449B00234418331B68C31A99
S3250C0115208B610123FB7324E03B69002B21DD7B691B68002B1DD117497A681346DB001344FC
S3250C0115409B000B447A695A607A681346DB0013449B00104A1A447B691A6039690D487A68FA
S3250C0115601346DB0013449B000344183319600123FB737B691B687B617B69002B06D0FB7BF7
S3250C01158083F00103DBB2002B7FF44AAF1837BD4690BC7047B00000209C00002080B485B053
S3250C0115A000AF78607A681346DB0013449B00294A1344FB60FB685B68002B07D1FB681B6855
S3250C0115C0002B03D1244B00221A603DE0FB685B68002B14D1FB681B681F4A13601E4B1B68ED
S3250C0115E000225A601C4B1B681B4A12689169FA6892690A449A61FB6800221A6024E0FB682D
S3250C0116001B68002B07D1FB685B6800221A60FB6800225A6018E0FB685B68FA6812681A60BC
S3250C011620FB681B68FA6852685A60FB681B68FA6812689169FA6892690A449A61FB680022F4
S3250C0116401A60FB6800225A601437BD465DF8047B704700BFB00000209C00002080B582B033
S3250C01166000AF2F4B1B687B6050E07B6893F82030002B13D07B685B691846FFF78FFF7B6868
S3250C01168000225A737B685B691A4601239340DA43244B1B681340234A136034E07B681B7B7B
S3250C0116A0002B12D17B685B7B012B2CD17B685B691846FFF773FF7B6802225A737B689B6800
S3250C0116C07A681269104698471DE07B681B7B012B18D17B685B7B012B15D17B685B6918460A
S3250C0116E0FFF75CFF7B68DA697B689A617B685B691846FFF771FE7B689B687A68126910467F
S3250C011700984700E009E0064B1B687B607B68002B03D07B689B69002BA7D00837BD4680BD76
S3250C0117209C000020A000002080B582B000AF0E4B1B687B600D4B1B6801330C4A13607B6892
S3250C011740002B0ED07B689B69012B05D97B689B695A1E7B689A6104E07B6800229A61FFF765
S3250C0117607DFF0837BD4680BD9C000020A400002080B584B000AF78600023FB737B681B78E4
S3250C01178083F00103DBB2002B20D0134B00221A601248FFF7FFFD0346FB73FB7B012B15D093
S3250C0117A0FFF78EFD034618463F210022FFF7C0FD03464FF0FF301946FFF790FD084B0022AB
S3250C0117C01A607B6801221A700023FB73FB7B18461037BD4680BD00BF9C000020C0D40100F0
S3250C0117E0A000002080B400AF054B1B684FF47A7202FB03F31846BD465DF8047B704700BF93
S3250C011800A400002080B400AF044A044B1B6843F001031360BD465DF8047B704710E000E0E6
S3250C01182080B584B000AF78600023FB737B685B7A83F00103DBB2002B0DD07B685A687B68C8
S3250C0118401B68104601211A46FFF7D6FB7B6801225A720023FB73FB7B18461037BD4680BD95
S3250C01186080B485B000AF78607B6803F00703FB600C4BDB68BB60BA684FF6FF031340BB609E
S3250C011880FB681A02BB68134343F0BF6343F40033BB60044ABB68D3601437BD465DF8047B9D
S3250C0118A0704700BF00ED00E080B582B000AF0120FFF7D6FF72B6214B214A9A60BFF34F8F47
S3250C0118C062B61E4A1D4BD3F8883043F47003C2F888301C4B03F5805314331B687B607B68B4
S3250C0118E023F00F037B607B6843F003037B60154B03F5805314337A681A60104A0F4B5B6998
S3250C01190023F0100353610D4A0C4B5B6923F0080353610A4A094B5B6A23F480335362074A59
S3250C011920064B5B6A23F400335362044A034B5B6A23F4802353620837BD4680BD00ED00E063
S3250C011940000001080010005880B485B000AF78600023FB737B6801221A70FB7B18461437D3
S3250C011960BD465DF8047B704780B400AF024B1846BD465DF8047B7047001BB700B0B586B03D
S3250C01198000AF124B3C1D1D460FCD0FC42B6823603B1D1846FEF702FE0020FEF7FDFE0020CC
S3250C0119A0FEF7B2FE0420FEF783FF01202021FEF7BBFF0020FEF7BCFE0120FEF7A1FF01201D
S3250C0119C0FEF78AFF1837BD46B0BD00BF4820010880B485B000AFF8600B467A60FB72FB681C
S3250C0119E09A68FB7A072101FA03F3DB431A40FB7A796801FA03F31A43FB689A601437BD467D
S3250C011A005DF8047B704700BF80B483B000AF78600B46FB707B68DB6823F00702FB7803F017
S3250C011A2007031A437B68DA600C37BD465DF8047B704700BF80B483B000AF78607B68DB686B
S3250C011A4043F480727B68DA600C37BD465DF8047B704700BF80B483B000AF78607B681B6849
S3250C011A6043F040027B681A600C37BD465DF8047B704700BF80B483B000AF78607B681B689D
S3250C011A8023F040027B681A600C37BD465DF8047B704700BF80B483B000AF78607B681B689D
S3250C011AA043F001027B681A600C37BD465DF8047B704700BF80B483B000AF78607B681B689C
S3250C011AC023F001027B681A600C37BD465DF8047B704700BF80B485B000AFF8600B467A6055
S3250C011AE0FB72FB681B68FA6812689168FA7A072000FA02F2D2431140FA7A786800FA02F27A
S3250C011B000A439A601437BD465DF8047B704700BF80B483B000AF78607B681B68DB691846DD
S3250C011B200C37BD465DF8047B704700BF80B483B000AF786039607B681B687A681268116840
S3250C011B403A680A431A600C37BD465DF8047B704780B582B000AF78607B681B6818464FF443
S3250C011B600031FFF7E3FF0837BD4680BD80B582B000AF78607B681B6818464FF48031FFF72E
S3250C011B80D5FF0837BD4680BD80B584B000AF78600023FB60786800F031F87B6893F8A43036
S3250C011BA0002B03D0FB6843F00203FB607B6893F8A330002B03D0FB6843F00403FB607B6804
S3250C011BC093F8A530002B03D0FB6843F00803FB607B685B681846F968FFF750FB7B6893F884
S3250C011BE0A630002B06D07B685B6818464FF48001FFF744FB1037BD4680BD00BF80B582B051
S3250C011C0000AF78607B685A687B68D3F88C301B78104600211A46FFF7DBFE7B685A687B685A
S3250C011C20D3F88C305B78104604211A46FFF7D0FE7B685A687B68D3F88C309B7810460821F7
S3250C011C401A46FFF7C5FE7B685A687B68D3F88C30DB7810460C211A46FFF7BAFE0837BD4623
S3250C011C6080BD00BF80B582B000AF78607B681B681846FFF701FA7B68DB79002B0BD07B6892
S3250C011C801A687B685B79104604211A46FFF722FF7868FFF75DFF7B681B7A002B0BD07B6873
S3250C011CA01A687B689B79104600211A46FFF712FF7868FFF75BFF0837BD4680BD80B584B0A2
S3250C011CC000AF78600023FB737B681B681846FFF7A7FA0346FB73FB7B18461037BD4680BD6C
S3250C011CE080B584B000AF786039600023FB733B68BB607B681B68BA6812681A617B681B6816
S3250C011D00BA6852685A617B681B681846FFF750FA0346FB73FB7B18461037BD4680BD00BF44
S3250C011D2080B584B000AF78607B681B681846FFF7EFFEF860FB6818461037BD4680BD00BF9A
S3250C011D4080B586B000AF78600023FB757B68D3F89030FB607B681B681846FFF761FD0346C1
S3250C011D60FB75FB7D002B40F082807B685A687B689B6810461946FFF74BF80346002B73D1DA
S3250C011D807B685B681846FFF765FE7B685B681846FFF780FE7B6893F8A730002B05D07B6833
S3250C011DA05B681846FFF746FE18E07B68D3F8983019687B68D3F898301A797B68D3F89C3043
S3250C011DC0084611461A46FEF7EFFA7B685A687B6893F8A03010461946FFF716FE7868FFF795
S3250C011DE0D3FE00233B6119E07A683B6902339B0013445B68BB607B681B6859687B6893F827
S3250C011E00A120BB681B79084611461A46FFF7A4F8B868FFF727FF3B6901333B617B6893F882
S3250C011E20A2301A463B699A42DED87B685B681846FFF720FE7B685B681846FFF73BFE7B68F9
S3250C011E4093F8A73083F00103DBB2002B11D0FB681968FB681A797B68D3F89430084611460C
S3250C011E601A46FEF7A1FA04E00123FB7501E00123FB75FB7D18461837BD4680BD80B582B0A6
S3250C011E8000AF0023FB710D48FFF75EFD0346FB71FB79002B04D10A48FFF76AFC0346FB71BF
S3250C011EA0FB79002B04D10748FFF74AFF0346FB71FB7918460837BD4680BD00BFAC0000207C
S3250C011EC0A8000020B820010880B483B000AF78600B46FB70FB784FF001129A407B685A6060
S3250C011EE00C37BD465DF8047B704700BF80B483B000AF786039607B681B683A68DA610C3732
S3250C011F00BD465DF8047B704780B586B000AF80233B710123BB6004233B733B1D18480121C9
S3250C011F201A46FEF741FA4FF48033BB603B1D144800211A46FEF738FAFFF7A0FF0346FB7444
S3250C011F40FB7C002B00D0FEE7FFF75CFCFFF74AFC7861FFF747FC02467B69D31A4CF25032A2
S3250C011F6093420CD9FFF73EFC786100F00BF804480121FFF7A9FF02480021FFF7A5FFE8E7B8
S3250C011F800081024880B584B000AF01233B7000237B700023BB700023FB7000233B710023A0
S3250C011FA07B710023BB710023FB71134B1B689B691B68FB60104B1B689A693B46104619466A
S3250C011FC0FFF78EFE0C4B1B689B691846FFF776FE0346FB72FB7A002B0BD1074B1B689B69BB
S3250C011FE01846FFF79DFE0346BB72F8680221FFF77DFF1037BD4680BD9800002070B50E4BB7
S3250C0120000E4CE41AA41000251E46A54204D056F8253098470135F8E7FFF74CF9084C094BE3
S3250C012020E41AA41000251E46A54204D056F8253098470135F8E770BD9C0000209C0000205B
S3250C0120409C0000209C000020500204010000010000000000000001000101010100810248CD
S3250C0120600C000000900000000100000002000000008102480D0000000000000000000000D6
S3250C01208000000000000000001800002020000000000000003800002021000000000000005C
S3250C0120A058000020220000000000000078000020230000000000000000000020004301480C
S3250C0120C00C0000208820010894200108A0200108AC200108000000000000000000000000B5
S3250C0120E00000000000000000000000000000000000000000000000000000000000000000CD
S3250C0121000000000000000000000000000000000000000000000000000000000000000000AC
S3250C01212000000000000000000000000000000000000000000000000000000000000000008C
S3250C01214000000000842001085C20010864200108702001087820010802010400000000006C
S3250C012160000E27070040014800000000000E270720A10700401F01000054014800070080FF
S3250C012180FF07002008000000000000000000000001000000000000002054014810070080A9
S3250C0121A0FF070020080000000000000000000000000000000000000040540148FF0400807E
S3250C0121C0FF070020080000000000000000000000000000000000000060540148000600803B
S3210C0121E0FF0700200800000000000000000000000100000000000000B8200108C0
S3090C040000AABBCCDDD8
S705FFFFFFFFFE
